{
  "contractName": "CommitRevealVote",
  "abi": [
    {
      "inputs": [],
      "payable": false,
      "stateMutability": "nonpayable",
      "type": "constructor"
    },
    {
      "constant": false,
      "inputs": [
        {
          "name": "_name",
          "type": "string"
        },
        {
          "name": "_options",
          "type": "bytes32[]"
        },
        {
          "name": "_commitEnds",
          "type": "uint256"
        },
        {
          "name": "_revealEnds",
          "type": "uint256"
        }
      ],
      "name": "addVote",
      "outputs": [],
      "payable": false,
      "stateMutability": "nonpayable",
      "type": "function"
    },
    {
      "constant": false,
      "inputs": [
        {
          "name": "_voteId",
          "type": "uint256"
        },
        {
          "name": "_commitSecret",
          "type": "bytes32"
        }
      ],
      "name": "commit",
      "outputs": [],
      "payable": false,
      "stateMutability": "nonpayable",
      "type": "function"
    },
    {
      "constant": false,
      "inputs": [
        {
          "name": "_voteId",
          "type": "uint256"
        },
        {
          "name": "_vote",
          "type": "bytes"
        }
      ],
      "name": "reveal",
      "outputs": [],
      "payable": false,
      "stateMutability": "nonpayable",
      "type": "function"
    },
    {
      "constant": false,
      "inputs": [
        {
          "name": "_voteId",
          "type": "uint256"
        }
      ],
      "name": "pickWinner",
      "outputs": [
        {
          "name": "",
          "type": "bytes32"
        }
      ],
      "payable": false,
      "stateMutability": "nonpayable",
      "type": "function"
    }
  ],
  "bytecode": "0x608060405234801561001057600080fd5b506040805190810160405280606481526020016000815250600080737e23cece666fc9c96b3afd1d1a9886b6d6b7e62173ffffffffffffffffffffffffffffffffffffffff1673ffffffffffffffffffffffffffffffffffffffff16815260200190815260200160002060008201518160000155602082015181600101559050506040805190810160405280606481526020016000815250600080737f88254273ea3c092c9ba0e147753331a641e9aa73ffffffffffffffffffffffffffffffffffffffff1673ffffffffffffffffffffffffffffffffffffffff1681526020019081526020016000206000820151816000015560208201518160010155905050610f48806101206000396000f300608060405260043610610062576000357c0100000000000000000000000000000000000000000000000000000000900463ffffffff168063208b360614610067578063ce80564214610127578063f2f038771461019a578063f737d21d146101d5575b600080fd5b34801561007357600080fd5b50610125600480360381019080803590602001908201803590602001908080601f016020809104026020016040519081016040528093929190818152602001838380828437820191505050505050919291929080359060200190820180359060200190808060200260200160405190810160405280939291908181526020018383602002808284378201915050505050509192919290803590602001909291908035906020019092919050505061021e565b005b34801561013357600080fd5b5061019860048036038101908080359060200190929190803590602001908201803590602001908080601f0160208091040260200160405190810160405280939291908181526020018383808284378201915050505050509192919290505050610451565b005b3480156101a657600080fd5b506101d36004803603810190808035906020019092919080356000191690602001909291905050506109a3565b005b3480156101e157600080fd5b5061020060048036038101908080359060200190929190505050610bde565b60405180826000191660001916815260200191505060405180910390f35b600060c06040519081016040528086815260200160006040519080825280602002602001820160405280156102625781602001602082028038833980820191505090505b50815260200160006040519080825280602002602001820160405280156102985781602001602082028038833980820191505090505b5081526020018481526020018381526020016000151581525060016000600280549050815260200190815260200160002060008201518160000190805190602001906102e5929190610db2565b506020820151816001019080519060200190610302929190610e32565b50604082015181600201908051906020019061031f929190610e85565b50606082015181600301556080820151816004015560a08201518160050160006101000a81548160ff021916908315150217905550905050600090505b835181101561041a57600160006002805490508152602001908152602001600020600101848281518110151561038e57fe5b90602001906020020151908060018154018082558091505090600182039060005260206000200160009091929091909150906000191690555060016000600280549050815260200190815260200160002060020160009080600181540180825580915050906001820390600052602060002001600090919290919091505550808060010191505061035c565b6002808054905090806001815401808255809150509060018203906000526020600020016000909192909190915055505050505050565b60008060008060003373ffffffffffffffffffffffffffffffffffffffff1673ffffffffffffffffffffffffffffffffffffffff16815260200190815260200160002060020160008681526020019081526020016000206000015460001916846040518082805190602001908083835b6020831015156104e657805182526020820191506020810190506020830392506104c1565b6001836020036101000a03801982511681845116808217855250505050505090500191505060405180910390206000191614151561058c576040517f08c379a00000000000000000000000000000000000000000000000000000000081526004018080602001828103825260108152602001807f77726f6e6720766f746520636c61696d0000000000000000000000000000000081525060200191505060405180910390fd5b6000803373ffffffffffffffffffffffffffffffffffffffff1673ffffffffffffffffffffffffffffffffffffffff168152602001908152602001600020600201600086815260200190815260200160002060010160019054906101000a900460ff16151515610664576040517f08c379a00000000000000000000000000000000000000000000000000000000081526004018080602001828103825260198152602001807f557365722068617320616c72656164792072657665616c65640000000000000081525060200191505060405180910390fd5b60016000803373ffffffffffffffffffffffffffffffffffffffff1673ffffffffffffffffffffffffffffffffffffffff168152602001908152602001600020600201600087815260200190815260200160002060010160016101000a81548160ff0219169083151502179055506106dd846001610ce4565b92506106e883610cfd565b9150816000803373ffffffffffffffffffffffffffffffffffffffff1673ffffffffffffffffffffffffffffffffffffffff168152602001908152602001600020600101546000803373ffffffffffffffffffffffffffffffffffffffff1673ffffffffffffffffffffffffffffffffffffffff16815260200190815260200160002060000154031115156107e5576040517f08c379a000000000000000000000000000000000000000000000000000000000815260040180806020018281038252601c8152602001807f5573657220646f6573206e6f7420656e6f7567682062616c616e63650000000081525060200191505060405180910390fd5b6107f0846000610d92565b905060016000868152602001908152602001600020600101805490508160ff16111515156108ac576040517f08c379a000000000000000000000000000000000000000000000000000000000815260040180806020018281038252602e8152602001807f5573657220697320747279696e6720746f20766f7465206f6e206e6f6e2d657881526020017f63697374656e74206f7074696f6e00000000000000000000000000000000000081525060400191505060405180910390fd5b816000803373ffffffffffffffffffffffffffffffffffffffff1673ffffffffffffffffffffffffffffffffffffffff16815260200190815260200160002060010154016000803373ffffffffffffffffffffffffffffffffffffffff1673ffffffffffffffffffffffffffffffffffffffff1681526020019081526020016000206001018190555081600160008781526020019081526020016000206002018260ff1681548110151561095c57fe5b906000526020600020015401600160008781526020019081526020016000206002018260ff1681548110151561098e57fe5b90600052602060002001819055505050505050565b6000803373ffffffffffffffffffffffffffffffffffffffff1673ffffffffffffffffffffffffffffffffffffffff168152602001908152602001600020600201600083815260200190815260200160002060010160009054906101000a900460ff16151515610aa1576040517f08c379a000000000000000000000000000000000000000000000000000000000815260040180806020018281038252602a8152602001807f557365722068617320616c72656164792070617274696369706174656420696e81526020017f207468697320766f74650000000000000000000000000000000000000000000081525060400191505060405180910390fd5b60606040519081016040528082600019168152602001600115158152602001600015158152506000803373ffffffffffffffffffffffffffffffffffffffff1673ffffffffffffffffffffffffffffffffffffffff16815260200190815260200160002060020160008481526020019081526020016000206000820151816000019060001916905560208201518160010160006101000a81548160ff02191690831515021790555060408201518160010160016101000a81548160ff02191690831515021790555090505060016000803373ffffffffffffffffffffffffffffffffffffffff1673ffffffffffffffffffffffffffffffffffffffff168152602001908152602001600020600201600084815260200190815260200160002060010160006101000a81548160ff0219169083151502179055505050565b60008060006001600085815260200190815260200160002060050160009054906101000a900460ff16151515610c1357600080fd5b600090505b6001600085815260200190815260200160002060010180549050811015610c7f57816001600086815260200190815260200160002060020182815481101515610c5d57fe5b90600052602060002001541115610c72578091505b8080600101915050610c18565b600180600086815260200190815260200160002060050160006101000a81548160ff0219169083151502179055506001600085815260200190815260200160002060010182815481101515610cd057fe5b906000526020600020015492505050919050565b6000806020830192508284015190508091505092915050565b60008060008090505b602060ff16811015610d885760018101602060ff160360080260020a8482602081101515610d3057fe5b1a7f0100000000000000000000000000000000000000000000000000000000000000027f0100000000000000000000000000000000000000000000000000000000000000900402820191508080600101915050610d06565b8192505050919050565b600080602083019250601f6101000a838501510490508091505092915050565b828054600181600116156101000203166002900490600052602060002090601f016020900481019282601f10610df357805160ff1916838001178555610e21565b82800160010185558215610e21579182015b82811115610e20578251825591602001919060010190610e05565b5b509050610e2e9190610ed2565b5090565b828054828255906000526020600020908101928215610e74579160200282015b82811115610e73578251829060001916905591602001919060010190610e52565b5b509050610e819190610ef7565b5090565b828054828255906000526020600020908101928215610ec1579160200282015b82811115610ec0578251825591602001919060010190610ea5565b5b509050610ece9190610ed2565b5090565b610ef491905b80821115610ef0576000816000905550600101610ed8565b5090565b90565b610f1991905b80821115610f15576000816000905550600101610efd565b5090565b905600a165627a7a723058205c768745ed57e390bd0f191dad778c8f63a3242f5cbb842ae89bd27b7ff50ab50029",
  "source": "pragma solidity ^0.4.24;\n\nimport \"./lib/Decoder.sol\";\n\ncontract CommitRevealVote {\n  using Decoder for Decoder;\n  \n  struct Commit {\n    bytes32 secret;\n    bool voted;\n    bool revealed;\n  }\n  \n  struct User {\n    uint tokens;\n    uint lockedTokens;\n    mapping(uint => Commit) userCommits;\n  }\n  \n  struct Vote {\n    string name;\n    // Vote options could easily be dynamic implementing arrays\n    bytes32[] options;\n    uint[] votes;\n    uint commitEnds;\n    uint revealEnds;\n    bool ended;\n  }\n  \n  mapping (address => User) userBalances;\n  mapping (uint => Vote) votes;\n  uint[] votesArr;\n  \n  constructor() public {\n      userBalances[address(0x7E23ceCe666fc9C96B3afd1D1a9886b6D6B7e621)] = User(100, 0);\n      userBalances[address(0x7f88254273Ea3c092c9bA0e147753331a641E9aA)] = User(100, 0);\n  }\n\n  // Example: \"EveryDapp\", [\"0x00\", \"0x01\"], 2043328814, 2123328814\n  function addVote(\n    string _name, \n    bytes32[] _options,\n    uint _commitEnds,\n    uint _revealEnds\n  ) public {\n    // require(_commitEnds > now + 60 * 60 * 24, \"commit time should atleast be one day from now\"); // Atleast have the commit 1 day from now\n    // require(_commitEnds > now + 60 * 60 * 48, \"reveal time should atleast be one day after commit\"); // Atleast have 1 day to reveal after that\n\n    votes[votesArr.length] = Vote(\n      _name, \n      new bytes32[](0), \n      new uint[](0), \n      _commitEnds, \n      _revealEnds, \n      false\n    );\n    \n    for(uint i = 0; i < _options.length; i++) {\n      votes[votesArr.length].options.push(_options[i]);\n      votes[votesArr.length].votes.push(0);\n    }\n    \n    votesArr.push(votesArr.length);\n  }\n  \n  // Example: 0, 0x63187ec60a67cd31ea7056a075f212643363da65bc07cbae5615aa8f06ae99e9\n  function commit(\n    uint _voteId, \n    bytes32 _commitSecret\n  ) public {\n    // require(votes[_voteId].commitEnds > now, \"Commit stage is done\");\n    require(!userBalances[msg.sender].userCommits[_voteId].voted, \"User has already participated in this vote\");\n    userBalances[msg.sender].userCommits[_voteId] = Commit(_commitSecret, true, false);\n    userBalances[msg.sender].userCommits[_voteId].voted = true;\n  }\n  \n  \n  // Example: 0, 0x010000000000000000000000000000000000000000000000000000000000000014\n  function reveal(\n    uint _voteId,\n    bytes _vote\n  ) public {\n    // require(votes[_voteId].commitEnds < now, \"Commit stage is still in progress\");\n    // require(votes[_voteId].revealEnds > now, \"Voting stage has ended\");\n    require(keccak256(_vote) == userBalances[msg.sender].userCommits[_voteId].secret, \"wrong vote claim\");\n    require(!userBalances[msg.sender].userCommits[_voteId].revealed, \"User has already revealed\");\n\n    userBalances[msg.sender].userCommits[_voteId].revealed = true;\n    bytes32 weightBytes = Decoder.readBytes32(_vote, 1);\n    uint weight = Decoder.bytes32ToUint(weightBytes);\n    \n    require((userBalances[msg.sender].tokens - userBalances[msg.sender].lockedTokens) > weight, \"User does not enough balance\");\n    \n    uint8 vote = Decoder.readUint8(_vote, 0);\n    \n    require(vote <= votes[_voteId].options.length, \"User is trying to vote on non-excistent option\");\n    \n    userBalances[msg.sender].lockedTokens = userBalances[msg.sender].lockedTokens + weight;\n    \n    votes[_voteId].votes[vote] = votes[_voteId].votes[vote] + weight;\n  }\n  \n  function pickWinner(\n    uint _voteId\n  ) \n  public \n  returns(bytes32) {\n    require(!votes[_voteId].ended);\n    // require(votes[_voteId].revealEnds < now);\n    uint winner;\n    for (uint i = 0; i < votes[_voteId].options.length; i++) {\n      if (votes[_voteId].votes[i] > winner) {\n        winner = i;\n      }\n    }\n    votes[_voteId].ended = true;\n    return votes[_voteId].options[winner];\n  }\n}",
  "sourcePath": "/Users/jasperdegooijer/Documents/commit-reveal/contracts/CommitRevealVote.sol",
  "compiler": {
    "name": "solc",
    "version": "0.4.24+commit.e67f0147.Emscripten.clang"
  },
  "schemaVersion": "2.0.1",
  "updatedAt": "2018-11-27T22:25:51.770Z"
}